{
  "_format": "hh3-artifact-1",
  "contractName": "SimpleEscrow",
  "sourceName": "contracts/SimpleEscrow.sol",
  "abi": [
    {
      "inputs": [
        {
          "internalType": "address",
          "name": "_backendService",
          "type": "address"
        },
        {
          "internalType": "address",
          "name": "_feeCollector",
          "type": "address"
        }
      ],
      "stateMutability": "nonpayable",
      "type": "constructor"
    },
    {
      "anonymous": false,
      "inputs": [
        {
          "indexed": true,
          "internalType": "address",
          "name": "oldBackend",
          "type": "address"
        },
        {
          "indexed": true,
          "internalType": "address",
          "name": "newBackend",
          "type": "address"
        }
      ],
      "name": "BackendServiceUpdated",
      "type": "event"
    },
    {
      "anonymous": false,
      "inputs": [
        {
          "indexed": true,
          "internalType": "bytes32",
          "name": "escrowId",
          "type": "bytes32"
        },
        {
          "indexed": true,
          "internalType": "address",
          "name": "sender",
          "type": "address"
        },
        {
          "indexed": true,
          "internalType": "address",
          "name": "beneficiary",
          "type": "address"
        },
        {
          "indexed": false,
          "internalType": "uint256",
          "name": "amount",
          "type": "uint256"
        },
        {
          "indexed": false,
          "internalType": "string",
          "name": "purpose",
          "type": "string"
        },
        {
          "indexed": false,
          "internalType": "uint256",
          "name": "expiresAt",
          "type": "uint256"
        }
      ],
      "name": "EscrowCreated",
      "type": "event"
    },
    {
      "anonymous": false,
      "inputs": [
        {
          "indexed": true,
          "internalType": "bytes32",
          "name": "escrowId",
          "type": "bytes32"
        },
        {
          "indexed": true,
          "internalType": "address",
          "name": "sender",
          "type": "address"
        },
        {
          "indexed": false,
          "internalType": "uint256",
          "name": "amount",
          "type": "uint256"
        },
        {
          "indexed": false,
          "internalType": "string",
          "name": "reason",
          "type": "string"
        }
      ],
      "name": "EscrowRefunded",
      "type": "event"
    },
    {
      "anonymous": false,
      "inputs": [
        {
          "indexed": true,
          "internalType": "address",
          "name": "oldCollector",
          "type": "address"
        },
        {
          "indexed": true,
          "internalType": "address",
          "name": "newCollector",
          "type": "address"
        }
      ],
      "name": "FeeCollectorUpdated",
      "type": "event"
    },
    {
      "anonymous": false,
      "inputs": [
        {
          "indexed": true,
          "internalType": "bytes32",
          "name": "escrowId",
          "type": "bytes32"
        },
        {
          "indexed": true,
          "internalType": "bytes32",
          "name": "paymentId",
          "type": "bytes32"
        },
        {
          "indexed": false,
          "internalType": "uint256",
          "name": "amount",
          "type": "uint256"
        },
        {
          "indexed": false,
          "internalType": "string",
          "name": "mpesaRef",
          "type": "string"
        },
        {
          "indexed": false,
          "internalType": "uint256",
          "name": "remainingAmount",
          "type": "uint256"
        }
      ],
      "name": "PaymentConfirmed",
      "type": "event"
    },
    {
      "anonymous": false,
      "inputs": [
        {
          "indexed": false,
          "internalType": "uint256",
          "name": "oldFeeBps",
          "type": "uint256"
        },
        {
          "indexed": false,
          "internalType": "uint256",
          "name": "newFeeBps",
          "type": "uint256"
        }
      ],
      "name": "ProtocolFeeUpdated",
      "type": "event"
    },
    {
      "inputs": [],
      "name": "MAX_FEE_BPS",
      "outputs": [
        {
          "internalType": "uint256",
          "name": "",
          "type": "uint256"
        }
      ],
      "stateMutability": "view",
      "type": "function"
    },
    {
      "inputs": [],
      "name": "backendService",
      "outputs": [
        {
          "internalType": "address",
          "name": "",
          "type": "address"
        }
      ],
      "stateMutability": "view",
      "type": "function"
    },
    {
      "inputs": [
        {
          "internalType": "bytes32",
          "name": "escrowId",
          "type": "bytes32"
        },
        {
          "internalType": "bytes32",
          "name": "paymentId",
          "type": "bytes32"
        },
        {
          "internalType": "uint256",
          "name": "amount",
          "type": "uint256"
        },
        {
          "internalType": "string",
          "name": "mpesaRef",
          "type": "string"
        }
      ],
      "name": "confirmPayment",
      "outputs": [],
      "stateMutability": "nonpayable",
      "type": "function"
    },
    {
      "inputs": [
        {
          "internalType": "bytes32",
          "name": "escrowId",
          "type": "bytes32"
        },
        {
          "internalType": "address",
          "name": "beneficiary",
          "type": "address"
        },
        {
          "internalType": "string",
          "name": "purpose",
          "type": "string"
        },
        {
          "internalType": "uint256",
          "name": "durationDays",
          "type": "uint256"
        }
      ],
      "name": "createEscrow",
      "outputs": [],
      "stateMutability": "payable",
      "type": "function"
    },
    {
      "inputs": [],
      "name": "emergencyWithdraw",
      "outputs": [],
      "stateMutability": "nonpayable",
      "type": "function"
    },
    {
      "inputs": [
        {
          "internalType": "bytes32",
          "name": "",
          "type": "bytes32"
        }
      ],
      "name": "escrowExists",
      "outputs": [
        {
          "internalType": "bool",
          "name": "",
          "type": "bool"
        }
      ],
      "stateMutability": "view",
      "type": "function"
    },
    {
      "inputs": [
        {
          "internalType": "bytes32",
          "name": "",
          "type": "bytes32"
        }
      ],
      "name": "escrows",
      "outputs": [
        {
          "internalType": "bytes32",
          "name": "escrowId",
          "type": "bytes32"
        },
        {
          "internalType": "address",
          "name": "sender",
          "type": "address"
        },
        {
          "internalType": "address",
          "name": "beneficiary",
          "type": "address"
        },
        {
          "internalType": "uint256",
          "name": "totalAmount",
          "type": "uint256"
        },
        {
          "internalType": "uint256",
          "name": "remainingAmount",
          "type": "uint256"
        },
        {
          "internalType": "uint256",
          "name": "releasedAmount",
          "type": "uint256"
        },
        {
          "internalType": "string",
          "name": "purpose",
          "type": "string"
        },
        {
          "internalType": "uint256",
          "name": "expiresAt",
          "type": "uint256"
        },
        {
          "internalType": "bool",
          "name": "isActive",
          "type": "bool"
        },
        {
          "internalType": "bool",
          "name": "isRefunded",
          "type": "bool"
        },
        {
          "internalType": "uint256",
          "name": "createdAt",
          "type": "uint256"
        }
      ],
      "stateMutability": "view",
      "type": "function"
    },
    {
      "inputs": [],
      "name": "feeCollector",
      "outputs": [
        {
          "internalType": "address",
          "name": "",
          "type": "address"
        }
      ],
      "stateMutability": "view",
      "type": "function"
    },
    {
      "inputs": [
        {
          "internalType": "bytes32",
          "name": "escrowId",
          "type": "bytes32"
        }
      ],
      "name": "getEscrow",
      "outputs": [
        {
          "components": [
            {
              "internalType": "bytes32",
              "name": "escrowId",
              "type": "bytes32"
            },
            {
              "internalType": "address",
              "name": "sender",
              "type": "address"
            },
            {
              "internalType": "address",
              "name": "beneficiary",
              "type": "address"
            },
            {
              "internalType": "uint256",
              "name": "totalAmount",
              "type": "uint256"
            },
            {
              "internalType": "uint256",
              "name": "remainingAmount",
              "type": "uint256"
            },
            {
              "internalType": "uint256",
              "name": "releasedAmount",
              "type": "uint256"
            },
            {
              "internalType": "string",
              "name": "purpose",
              "type": "string"
            },
            {
              "internalType": "uint256",
              "name": "expiresAt",
              "type": "uint256"
            },
            {
              "internalType": "bool",
              "name": "isActive",
              "type": "bool"
            },
            {
              "internalType": "bool",
              "name": "isRefunded",
              "type": "bool"
            },
            {
              "internalType": "uint256",
              "name": "createdAt",
              "type": "uint256"
            }
          ],
          "internalType": "struct SimpleEscrow.Escrow",
          "name": "",
          "type": "tuple"
        }
      ],
      "stateMutability": "view",
      "type": "function"
    },
    {
      "inputs": [
        {
          "internalType": "bytes32",
          "name": "escrowId",
          "type": "bytes32"
        }
      ],
      "name": "isExpired",
      "outputs": [
        {
          "internalType": "bool",
          "name": "",
          "type": "bool"
        }
      ],
      "stateMutability": "view",
      "type": "function"
    },
    {
      "inputs": [
        {
          "internalType": "bytes32",
          "name": "paymentId",
          "type": "bytes32"
        }
      ],
      "name": "isPaymentIdUsed",
      "outputs": [
        {
          "internalType": "bool",
          "name": "",
          "type": "bool"
        }
      ],
      "stateMutability": "view",
      "type": "function"
    },
    {
      "inputs": [],
      "name": "owner",
      "outputs": [
        {
          "internalType": "address",
          "name": "",
          "type": "address"
        }
      ],
      "stateMutability": "view",
      "type": "function"
    },
    {
      "inputs": [],
      "name": "protocolFeeBps",
      "outputs": [
        {
          "internalType": "uint256",
          "name": "",
          "type": "uint256"
        }
      ],
      "stateMutability": "view",
      "type": "function"
    },
    {
      "inputs": [
        {
          "internalType": "bytes32",
          "name": "escrowId",
          "type": "bytes32"
        },
        {
          "internalType": "string",
          "name": "reason",
          "type": "string"
        }
      ],
      "name": "refundEscrow",
      "outputs": [],
      "stateMutability": "nonpayable",
      "type": "function"
    },
    {
      "inputs": [
        {
          "internalType": "address",
          "name": "newBackend",
          "type": "address"
        }
      ],
      "name": "setBackendService",
      "outputs": [],
      "stateMutability": "nonpayable",
      "type": "function"
    },
    {
      "inputs": [
        {
          "internalType": "address",
          "name": "newCollector",
          "type": "address"
        }
      ],
      "name": "setFeeCollector",
      "outputs": [],
      "stateMutability": "nonpayable",
      "type": "function"
    },
    {
      "inputs": [
        {
          "internalType": "uint256",
          "name": "newFeeBps",
          "type": "uint256"
        }
      ],
      "name": "setProtocolFee",
      "outputs": [],
      "stateMutability": "nonpayable",
      "type": "function"
    },
    {
      "inputs": [
        {
          "internalType": "bytes32",
          "name": "",
          "type": "bytes32"
        }
      ],
      "name": "usedPaymentIds",
      "outputs": [
        {
          "internalType": "bool",
          "name": "",
          "type": "bool"
        }
      ],
      "stateMutability": "view",
      "type": "function"
    },
    {
      "stateMutability": "payable",
      "type": "receive"
    }
  ],
  "bytecode": "0x60806040526064600355348015610014575f5ffd5b5060405161366938038061366983398181016040528101906100369190610236565b5f73ffffffffffffffffffffffffffffffffffffffff168273ffffffffffffffffffffffffffffffffffffffff16036100a4576040517f08c379a000000000000000000000000000000000000000000000000000000000815260040161009b906102ce565b60405180910390fd5b5f73ffffffffffffffffffffffffffffffffffffffff168173ffffffffffffffffffffffffffffffffffffffff1603610112576040517f08c379a000000000000000000000000000000000000000000000000000000000815260040161010990610336565b60405180910390fd5b335f5f6101000a81548173ffffffffffffffffffffffffffffffffffffffff021916908373ffffffffffffffffffffffffffffffffffffffff1602179055508160015f6101000a81548173ffffffffffffffffffffffffffffffffffffffff021916908373ffffffffffffffffffffffffffffffffffffffff1602179055508060025f6101000a81548173ffffffffffffffffffffffffffffffffffffffff021916908373ffffffffffffffffffffffffffffffffffffffff1602179055505050610354565b5f5ffd5b5f73ffffffffffffffffffffffffffffffffffffffff82169050919050565b5f610205826101dc565b9050919050565b610215816101fb565b811461021f575f5ffd5b50565b5f815190506102308161020c565b92915050565b5f5f6040838503121561024c5761024b6101d8565b5b5f61025985828601610222565b925050602061026a85828601610222565b9150509250929050565b5f82825260208201905092915050565b7f496e76616c6964206261636b656e6420616464726573730000000000000000005f82015250565b5f6102b8601783610274565b91506102c382610284565b602082019050919050565b5f6020820190508181035f8301526102e5816102ac565b9050919050565b7f496e76616c69642066656520636f6c6c6563746f7200000000000000000000005f82015250565b5f610320601583610274565b915061032b826102ec565b602082019050919050565b5f6020820190508181035f83015261034d81610314565b9050919050565b613308806103615f395ff3fe60806040526004361061010c575f3560e01c8063909fb62311610094578063d55be8c611610063578063d55be8c6146103c0578063db2e21bc146103ea578063dc72179014610400578063e012116f1461042a578063f023b811146104525761014c565b8063909fb6231461032a578063a42dce8014610352578063c415b95c1461037a578063cb54765b146103a45761014c565b80636db2feb2116100db5780636db2feb2146102245780637835ba3314610260578063787dce3d1461029c5780637c0ce81e146102c45780638da5cb5b146103005761014c565b80632d83549c1461015057806335659fb81461019657806352e1e8a7146101c05780635e5428c4146101fc5761014c565b3661014c576040517f08c379a000000000000000000000000000000000000000000000000000000000815260040161014390611dbb565b60405180910390fd5b5f5ffd5b34801561015b575f5ffd5b5061017660048036038101906101719190611e14565b61048e565b60405161018d9b9a99989796959493929190611f1f565b60405180910390f35b3480156101a1575f5ffd5b506101aa6105c1565b6040516101b79190611fcf565b60405180910390f35b3480156101cb575f5ffd5b506101e660048036038101906101e19190611e14565b6105c7565b6040516101f39190611fe8565b60405180910390f35b348015610207575f5ffd5b50610222600480360381019061021d9190612062565b6105e4565b005b34801561022f575f5ffd5b5061024a60048036038101906102459190611e14565b6109b0565b6040516102579190611fe8565b60405180910390f35b34801561026b575f5ffd5b5061028660048036038101906102819190611e14565b610a2f565b6040516102939190611fe8565b60405180910390f35b3480156102a7575f5ffd5b506102c260048036038101906102bd91906120e9565b610a4c565b005b3480156102cf575f5ffd5b506102ea60048036038101906102e59190611e14565b610b69565b6040516102f79190611fe8565b60405180910390f35b34801561030b575f5ffd5b50610314610b8f565b6040516103219190612114565b60405180910390f35b348015610335575f5ffd5b50610350600480360381019061034b919061212d565b610bb3565b005b34801561035d575f5ffd5b50610378600480360381019061037391906121db565b611126565b005b348015610385575f5ffd5b5061038e6112e5565b60405161039b9190612114565b60405180910390f35b6103be60048036038101906103b99190612206565b61130a565b005b3480156103cb575f5ffd5b506103d4611769565b6040516103e19190611fcf565b60405180910390f35b3480156103f5575f5ffd5b506103fe61176f565b005b34801561040b575f5ffd5b506104146118c8565b6040516104219190612114565b60405180910390f35b348015610435575f5ffd5b50610450600480360381019061044b91906121db565b6118ed565b005b34801561045d575f5ffd5b5061047860048036038101906104739190611e14565b611aac565b60405161048591906123fa565b60405180910390f35b6004602052805f5260405f205f91509050805f015490806001015f9054906101000a900473ffffffffffffffffffffffffffffffffffffffff1690806002015f9054906101000a900473ffffffffffffffffffffffffffffffffffffffff169080600301549080600401549080600501549080600601805461050f90612447565b80601f016020809104026020016040519081016040528092919081815260200182805461053b90612447565b80156105865780601f1061055d57610100808354040283529160200191610586565b820191905f5260205f20905b81548152906001019060200180831161056957829003601f168201915b505050505090806007015490806008015f9054906101000a900460ff16908060080160019054906101000a900460ff1690806009015490508b565b60035481565b6005602052805f5260405f205f915054906101000a900460ff1681565b60015f9054906101000a900473ffffffffffffffffffffffffffffffffffffffff1673ffffffffffffffffffffffffffffffffffffffff163373ffffffffffffffffffffffffffffffffffffffff1614610673576040517f08c379a000000000000000000000000000000000000000000000000000000000815260040161066a906124c1565b60405180910390fd5b8260065f8281526020019081526020015f205f9054906101000a900460ff166106d1576040517f08c379a00000000000000000000000000000000000000000000000000000000081526004016106c890612529565b60405180910390fd5b5f60045f8681526020019081526020015f209050806008015f9054906101000a900460ff16610735576040517f08c379a000000000000000000000000000000000000000000000000000000000815260040161072c90612591565b60405180910390fd5b8060080160019054906101000a900460ff1615610787576040517f08c379a000000000000000000000000000000000000000000000000000000000815260040161077e906125f9565b60405180910390fd5b80600701544210158061079c57505f84849050115b6107db576040517f08c379a00000000000000000000000000000000000000000000000000000000081526004016107d290612687565b60405180910390fd5b5f816004015490505f8111610825576040517f08c379a000000000000000000000000000000000000000000000000000000000815260040161081c906126ef565b60405180910390fd5b5f826008015f6101000a81548160ff02191690831515021790555060018260080160016101000a81548160ff0219169083151502179055505f82600401819055505f826001015f9054906101000a900473ffffffffffffffffffffffffffffffffffffffff1673ffffffffffffffffffffffffffffffffffffffff16826040516108ae9061273a565b5f6040518083038185875af1925050503d805f81146108e8576040519150601f19603f3d011682016040523d82523d5f602084013e6108ed565b606091505b5050905080610931576040517f08c379a000000000000000000000000000000000000000000000000000000000815260040161092890612798565b60405180910390fd5b826001015f9054906101000a900473ffffffffffffffffffffffffffffffffffffffff1673ffffffffffffffffffffffffffffffffffffffff16877f8c90de59f24c939b7e8e5f2914387cdc80468113ce3e748bc59d8376a9ee5bd184898960405161099f939291906127f0565b60405180910390a350505050505050565b5f8160065f8281526020019081526020015f205f9054906101000a900460ff16610a0f576040517f08c379a0000000000000000000000000000000000000000000000000000000008152600401610a0690612529565b60405180910390fd5b60045f8481526020019081526020015f2060070154421015915050919050565b6006602052805f5260405f205f915054906101000a900460ff1681565b5f5f9054906101000a900473ffffffffffffffffffffffffffffffffffffffff1673ffffffffffffffffffffffffffffffffffffffff163373ffffffffffffffffffffffffffffffffffffffff1614610ada576040517f08c379a0000000000000000000000000000000000000000000000000000000008152600401610ad19061286a565b60405180910390fd5b6101f4811115610b1f576040517f08c379a0000000000000000000000000000000000000000000000000000000008152600401610b16906128d2565b60405180910390fd5b5f6003549050816003819055507fb404cac19fb1cbeff98d325795b08886e3cd8fe8cb1a2f193aac66f13fb239c38183604051610b5d9291906128f0565b60405180910390a15050565b5f60055f8381526020019081526020015f205f9054906101000a900460ff169050919050565b5f5f9054906101000a900473ffffffffffffffffffffffffffffffffffffffff1681565b60015f9054906101000a900473ffffffffffffffffffffffffffffffffffffffff1673ffffffffffffffffffffffffffffffffffffffff163373ffffffffffffffffffffffffffffffffffffffff1614610c42576040517f08c379a0000000000000000000000000000000000000000000000000000000008152600401610c39906124c1565b60405180910390fd5b8460065f8281526020019081526020015f205f9054906101000a900460ff16610ca0576040517f08c379a0000000000000000000000000000000000000000000000000000000008152600401610c9790612529565b60405180910390fd5b8560045f8281526020019081526020015f206008015f9054906101000a900460ff16610d01576040517f08c379a0000000000000000000000000000000000000000000000000000000008152600401610cf890612591565b60405180910390fd5b5f60045f8981526020019081526020015f20905060055f8881526020019081526020015f205f9054906101000a900460ff1615610d73576040517f08c379a0000000000000000000000000000000000000000000000000000000008152600401610d6a90612961565b60405180910390fd5b5f8611610db5576040517f08c379a0000000000000000000000000000000000000000000000000000000008152600401610dac906129c9565b60405180910390fd5b8581600401541015610dfc576040517f08c379a0000000000000000000000000000000000000000000000000000000008152600401610df390612a31565b60405180910390fd5b80600701544210610e42576040517f08c379a0000000000000000000000000000000000000000000000000000000008152600401610e3990612a99565b60405180910390fd5b5f8585905011610e87576040517f08c379a0000000000000000000000000000000000000000000000000000000008152600401610e7e90612b01565b60405180910390fd5b600160055f8981526020019081526020015f205f6101000a81548160ff0219169083151502179055505f61271060035488610ec29190612b4c565b610ecc9190612bba565b90505f8188610edb9190612bea565b905087836004015f828254610ef09190612bea565b9250508190555087836005015f828254610f0a9190612c1d565b925050819055505f836002015f9054906101000a900473ffffffffffffffffffffffffffffffffffffffff1673ffffffffffffffffffffffffffffffffffffffff1682604051610f599061273a565b5f6040518083038185875af1925050503d805f8114610f93576040519150601f19603f3d011682016040523d82523d5f602084013e610f98565b606091505b5050905080610fdc576040517f08c379a0000000000000000000000000000000000000000000000000000000008152600401610fd390612c9a565b60405180910390fd5b5f8311156110af575f60025f9054906101000a900473ffffffffffffffffffffffffffffffffffffffff1673ffffffffffffffffffffffffffffffffffffffff168460405161102a9061273a565b5f6040518083038185875af1925050503d805f8114611064576040519150601f19603f3d011682016040523d82523d5f602084013e611069565b606091505b50509050806110ad576040517f08c379a00000000000000000000000000000000000000000000000000000000081526004016110a490612d02565b60405180910390fd5b505b5f8460040154036110d6575f846008015f6101000a81548160ff0219169083151502179055505b898b7f010ad905d801a88820d0d57c40413e12642e15ad75fe9d8eb2eb89e02601e9e38b8b8b89600401546040516111119493929190612d20565b60405180910390a35050505050505050505050565b5f5f9054906101000a900473ffffffffffffffffffffffffffffffffffffffff1673ffffffffffffffffffffffffffffffffffffffff163373ffffffffffffffffffffffffffffffffffffffff16146111b4576040517f08c379a00000000000000000000000000000000000000000000000000000000081526004016111ab9061286a565b60405180910390fd5b5f73ffffffffffffffffffffffffffffffffffffffff168173ffffffffffffffffffffffffffffffffffffffff1603611222576040517f08c379a000000000000000000000000000000000000000000000000000000000815260040161121990612da8565b60405180910390fd5b5f60025f9054906101000a900473ffffffffffffffffffffffffffffffffffffffff1690508160025f6101000a81548173ffffffffffffffffffffffffffffffffffffffff021916908373ffffffffffffffffffffffffffffffffffffffff1602179055508173ffffffffffffffffffffffffffffffffffffffff168173ffffffffffffffffffffffffffffffffffffffff167f5d16ad41baeb009cd23eb8f6c7cde5c2e0cd5acf4a33926ab488875c37c37f3860405160405180910390a35050565b60025f9054906101000a900473ffffffffffffffffffffffffffffffffffffffff1681565b60065f8681526020019081526020015f205f9054906101000a900460ff1615611368576040517f08c379a000000000000000000000000000000000000000000000000000000000815260040161135f90612e10565b60405180910390fd5b5f73ffffffffffffffffffffffffffffffffffffffff168473ffffffffffffffffffffffffffffffffffffffff16036113d6576040517f08c379a00000000000000000000000000000000000000000000000000000000081526004016113cd90612e78565b60405180910390fd5b5f3411611418576040517f08c379a000000000000000000000000000000000000000000000000000000000815260040161140f90612ee0565b60405180910390fd5b5f81118015611429575061016d8111155b611468576040517f08c379a000000000000000000000000000000000000000000000000000000000815260040161145f90612f48565b60405180910390fd5b5f8383905011801561147e575060648383905011155b6114bd576040517f08c379a00000000000000000000000000000000000000000000000000000000081526004016114b490612fb0565b60405180910390fd5b5f62015180826114cd9190612b4c565b426114d89190612c1d565b90506040518061016001604052808781526020013373ffffffffffffffffffffffffffffffffffffffff1681526020018673ffffffffffffffffffffffffffffffffffffffff1681526020013481526020013481526020015f815260200185858080601f0160208091040260200160405190810160405280939291908181526020018383808284375f81840152601f19601f8201169050808301925050505050505081526020018281526020016001151581526020015f151581526020014281525060045f8881526020019081526020015f205f820151815f01556020820151816001015f6101000a81548173ffffffffffffffffffffffffffffffffffffffff021916908373ffffffffffffffffffffffffffffffffffffffff1602179055506040820151816002015f6101000a81548173ffffffffffffffffffffffffffffffffffffffff021916908373ffffffffffffffffffffffffffffffffffffffff160217905550606082015181600301556080820151816004015560a0820151816005015560c0820151816006019081611672919061319b565b5060e08201518160070155610100820151816008015f6101000a81548160ff0219169083151502179055506101208201518160080160016101000a81548160ff0219169083151502179055506101408201518160090155905050600160065f8881526020019081526020015f205f6101000a81548160ff0219169083151502179055508473ffffffffffffffffffffffffffffffffffffffff163373ffffffffffffffffffffffffffffffffffffffff16877ff4595dc63c652ead256470ac6c3e6edc897269c1b34009f7a3ab41426bcc835d348888876040516117599493929190612d20565b60405180910390a4505050505050565b6101f481565b5f5f9054906101000a900473ffffffffffffffffffffffffffffffffffffffff1673ffffffffffffffffffffffffffffffffffffffff163373ffffffffffffffffffffffffffffffffffffffff16146117fd576040517f08c379a00000000000000000000000000000000000000000000000000000000081526004016117f49061286a565b60405180910390fd5b5f5f5f9054906101000a900473ffffffffffffffffffffffffffffffffffffffff1673ffffffffffffffffffffffffffffffffffffffff16476040516118429061273a565b5f6040518083038185875af1925050503d805f811461187c576040519150601f19603f3d011682016040523d82523d5f602084013e611881565b606091505b50509050806118c5576040517f08c379a00000000000000000000000000000000000000000000000000000000081526004016118bc906132b4565b60405180910390fd5b50565b60015f9054906101000a900473ffffffffffffffffffffffffffffffffffffffff1681565b5f5f9054906101000a900473ffffffffffffffffffffffffffffffffffffffff1673ffffffffffffffffffffffffffffffffffffffff163373ffffffffffffffffffffffffffffffffffffffff161461197b576040517f08c379a00000000000000000000000000000000000000000000000000000000081526004016119729061286a565b60405180910390fd5b5f73ffffffffffffffffffffffffffffffffffffffff168173ffffffffffffffffffffffffffffffffffffffff16036119e9576040517f08c379a00000000000000000000000000000000000000000000000000000000081526004016119e090612da8565b60405180910390fd5b5f60015f9054906101000a900473ffffffffffffffffffffffffffffffffffffffff1690508160015f6101000a81548173ffffffffffffffffffffffffffffffffffffffff021916908373ffffffffffffffffffffffffffffffffffffffff1602179055508173ffffffffffffffffffffffffffffffffffffffff168173ffffffffffffffffffffffffffffffffffffffff167f1b72c2b41d463d25a0412e1090e56152252f7566a31eb2af813ed9bc7657972d60405160405180910390a35050565b611ab4611ce1565b8160065f8281526020019081526020015f205f9054906101000a900460ff16611b12576040517f08c379a0000000000000000000000000000000000000000000000000000000008152600401611b0990612529565b60405180910390fd5b60045f8481526020019081526020015f20604051806101600160405290815f8201548152602001600182015f9054906101000a900473ffffffffffffffffffffffffffffffffffffffff1673ffffffffffffffffffffffffffffffffffffffff1673ffffffffffffffffffffffffffffffffffffffff168152602001600282015f9054906101000a900473ffffffffffffffffffffffffffffffffffffffff1673ffffffffffffffffffffffffffffffffffffffff1673ffffffffffffffffffffffffffffffffffffffff168152602001600382015481526020016004820154815260200160058201548152602001600682018054611c1090612447565b80601f0160208091040260200160405190810160405280929190818152602001828054611c3c90612447565b8015611c875780601f10611c5e57610100808354040283529160200191611c87565b820191905f5260205f20905b815481529060010190602001808311611c6a57829003601f168201915b5050505050815260200160078201548152602001600882015f9054906101000a900460ff161515151581526020016008820160019054906101000a900460ff16151515158152602001600982015481525050915050919050565b6040518061016001604052805f81526020015f73ffffffffffffffffffffffffffffffffffffffff1681526020015f73ffffffffffffffffffffffffffffffffffffffff1681526020015f81526020015f81526020015f8152602001606081526020015f81526020015f151581526020015f151581526020015f81525090565b5f82825260208201905092915050565b7f55736520637265617465457363726f7720746f206465706f73697400000000005f82015250565b5f611da5601b83611d61565b9150611db082611d71565b602082019050919050565b5f6020820190508181035f830152611dd281611d99565b9050919050565b5f5ffd5b5f5ffd5b5f819050919050565b611df381611de1565b8114611dfd575f5ffd5b50565b5f81359050611e0e81611dea565b92915050565b5f60208284031215611e2957611e28611dd9565b5b5f611e3684828501611e00565b91505092915050565b611e4881611de1565b82525050565b5f73ffffffffffffffffffffffffffffffffffffffff82169050919050565b5f611e7782611e4e565b9050919050565b611e8781611e6d565b82525050565b5f819050919050565b611e9f81611e8d565b82525050565b5f81519050919050565b8281835e5f83830152505050565b5f601f19601f8301169050919050565b5f611ed782611ea5565b611ee18185611d61565b9350611ef1818560208601611eaf565b611efa81611ebd565b840191505092915050565b5f8115159050919050565b611f1981611f05565b82525050565b5f61016082019050611f335f83018e611e3f565b611f40602083018d611e7e565b611f4d604083018c611e7e565b611f5a606083018b611e96565b611f67608083018a611e96565b611f7460a0830189611e96565b81810360c0830152611f868188611ecd565b9050611f9560e0830187611e96565b611fa3610100830186611f10565b611fb1610120830185611f10565b611fbf610140830184611e96565b9c9b505050505050505050505050565b5f602082019050611fe25f830184611e96565b92915050565b5f602082019050611ffb5f830184611f10565b92915050565b5f5ffd5b5f5ffd5b5f5ffd5b5f5f83601f84011261202257612021612001565b5b8235905067ffffffffffffffff81111561203f5761203e612005565b5b60208301915083600182028301111561205b5761205a612009565b5b9250929050565b5f5f5f6040848603121561207957612078611dd9565b5b5f61208686828701611e00565b935050602084013567ffffffffffffffff8111156120a7576120a6611ddd565b5b6120b38682870161200d565b92509250509250925092565b6120c881611e8d565b81146120d2575f5ffd5b50565b5f813590506120e3816120bf565b92915050565b5f602082840312156120fe576120fd611dd9565b5b5f61210b848285016120d5565b91505092915050565b5f6020820190506121275f830184611e7e565b92915050565b5f5f5f5f5f6080868803121561214657612145611dd9565b5b5f61215388828901611e00565b955050602061216488828901611e00565b9450506040612175888289016120d5565b935050606086013567ffffffffffffffff81111561219657612195611ddd565b5b6121a28882890161200d565b92509250509295509295909350565b6121ba81611e6d565b81146121c4575f5ffd5b50565b5f813590506121d5816121b1565b92915050565b5f602082840312156121f0576121ef611dd9565b5b5f6121fd848285016121c7565b91505092915050565b5f5f5f5f5f6080868803121561221f5761221e611dd9565b5b5f61222c88828901611e00565b955050602061223d888289016121c7565b945050604086013567ffffffffffffffff81111561225e5761225d611ddd565b5b61226a8882890161200d565b9350935050606061227d888289016120d5565b9150509295509295909350565b61229381611de1565b82525050565b6122a281611e6d565b82525050565b6122b181611e8d565b82525050565b5f82825260208201905092915050565b5f6122d182611ea5565b6122db81856122b7565b93506122eb818560208601611eaf565b6122f481611ebd565b840191505092915050565b61230881611f05565b82525050565b5f61016083015f8301516123245f86018261228a565b5060208301516123376020860182612299565b50604083015161234a6040860182612299565b50606083015161235d60608601826122a8565b50608083015161237060808601826122a8565b5060a083015161238360a08601826122a8565b5060c083015184820360c086015261239b82826122c7565b91505060e08301516123b060e08601826122a8565b506101008301516123c56101008601826122ff565b506101208301516123da6101208601826122ff565b506101408301516123ef6101408601826122a8565b508091505092915050565b5f6020820190508181035f830152612412818461230e565b905092915050565b7f4e487b71000000000000000000000000000000000000000000000000000000005f52602260045260245ffd5b5f600282049050600182168061245e57607f821691505b6020821081036124715761247061241a565b5b50919050565b7f4f6e6c79206261636b656e6420736572766963650000000000000000000000005f82015250565b5f6124ab601483611d61565b91506124b682612477565b602082019050919050565b5f6020820190508181035f8301526124d88161249f565b9050919050565b7f457363726f7720646f6573206e6f7420657869737400000000000000000000005f82015250565b5f612513601583611d61565b915061251e826124df565b602082019050919050565b5f6020820190508181035f83015261254081612507565b9050919050565b7f457363726f77206e6f74206163746976650000000000000000000000000000005f82015250565b5f61257b601183611d61565b915061258682612547565b602082019050919050565b5f6020820190508181035f8301526125a88161256f565b9050919050565b7f416c726561647920726566756e646564000000000000000000000000000000005f82015250565b5f6125e3601083611d61565b91506125ee826125af565b602082019050919050565b5f6020820190508181035f830152612610816125d7565b9050919050565b7f43616e6e6f7420726566756e64206265666f72652065787069727920776974685f8201527f6f757420726561736f6e00000000000000000000000000000000000000000000602082015250565b5f612671602a83611d61565b915061267c82612617565b604082019050919050565b5f6020820190508181035f83015261269e81612665565b9050919050565b7f4e6f2066756e647320746f20726566756e6400000000000000000000000000005f82015250565b5f6126d9601283611d61565b91506126e4826126a5565b602082019050919050565b5f6020820190508181035f830152612706816126cd565b9050919050565b5f81905092915050565b50565b5f6127255f8361270d565b915061273082612717565b5f82019050919050565b5f6127448261271a565b9150819050919050565b7f526566756e64207472616e73666572206661696c6564000000000000000000005f82015250565b5f612782601683611d61565b915061278d8261274e565b602082019050919050565b5f6020820190508181035f8301526127af81612776565b9050919050565b828183375f83830152505050565b5f6127cf8385611d61565b93506127dc8385846127b6565b6127e583611ebd565b840190509392505050565b5f6040820190506128035f830186611e96565b81810360208301526128168184866127c4565b9050949350505050565b7f4f6e6c79206f776e6572000000000000000000000000000000000000000000005f82015250565b5f612854600a83611d61565b915061285f82612820565b602082019050919050565b5f6020820190508181035f83015261288181612848565b9050919050565b7f46656520746f6f206869676800000000000000000000000000000000000000005f82015250565b5f6128bc600c83611d61565b91506128c782612888565b602082019050919050565b5f6020820190508181035f8301526128e9816128b0565b9050919050565b5f6040820190506129035f830185611e96565b6129106020830184611e96565b9392505050565b7f5061796d656e7420494420616c726561647920757365640000000000000000005f82015250565b5f61294b601783611d61565b915061295682612917565b602082019050919050565b5f6020820190508181035f8301526129788161293f565b9050919050565b7f416d6f756e74206d75737420626520706f7369746976650000000000000000005f82015250565b5f6129b3601783611d61565b91506129be8261297f565b602082019050919050565b5f6020820190508181035f8301526129e0816129a7565b9050919050565b7f496e73756666696369656e7420657363726f772062616c616e636500000000005f82015250565b5f612a1b601b83611d61565b9150612a26826129e7565b602082019050919050565b5f6020820190508181035f830152612a4881612a0f565b9050919050565b7f457363726f7720657870697265640000000000000000000000000000000000005f82015250565b5f612a83600e83611d61565b9150612a8e82612a4f565b602082019050919050565b5f6020820190508181035f830152612ab081612a77565b9050919050565b7f4d2d50657361207265666572656e6365207265717569726564000000000000005f82015250565b5f612aeb601983611d61565b9150612af682612ab7565b602082019050919050565b5f6020820190508181035f830152612b1881612adf565b9050919050565b7f4e487b71000000000000000000000000000000000000000000000000000000005f52601160045260245ffd5b5f612b5682611e8d565b9150612b6183611e8d565b9250828202612b6f81611e8d565b91508282048414831517612b8657612b85612b1f565b5b5092915050565b7f4e487b71000000000000000000000000000000000000000000000000000000005f52601260045260245ffd5b5f612bc482611e8d565b9150612bcf83611e8d565b925082612bdf57612bde612b8d565b5b828204905092915050565b5f612bf482611e8d565b9150612bff83611e8d565b9250828203905081811115612c1757612c16612b1f565b5b92915050565b5f612c2782611e8d565b9150612c3283611e8d565b9250828201905080821115612c4a57612c49612b1f565b5b92915050565b7f42656e6566696369617279207472616e73666572206661696c656400000000005f82015250565b5f612c84601b83611d61565b9150612c8f82612c50565b602082019050919050565b5f6020820190508181035f830152612cb181612c78565b9050919050565b7f466565207472616e73666572206661696c6564000000000000000000000000005f82015250565b5f612cec601383611d61565b9150612cf782612cb8565b602082019050919050565b5f6020820190508181035f830152612d1981612ce0565b9050919050565b5f606082019050612d335f830187611e96565b8181036020830152612d468185876127c4565b9050612d556040830184611e96565b95945050505050565b7f496e76616c6964206164647265737300000000000000000000000000000000005f82015250565b5f612d92600f83611d61565b9150612d9d82612d5e565b602082019050919050565b5f6020820190508181035f830152612dbf81612d86565b9050919050565b7f457363726f7720616c72656164792065786973747300000000000000000000005f82015250565b5f612dfa601583611d61565b9150612e0582612dc6565b602082019050919050565b5f6020820190508181035f830152612e2781612dee565b9050919050565b7f496e76616c69642062656e6566696369617279000000000000000000000000005f82015250565b5f612e62601383611d61565b9150612e6d82612e2e565b602082019050919050565b5f6020820190508181035f830152612e8f81612e56565b9050919050565b7f4d757374206465706f7369742066756e647300000000000000000000000000005f82015250565b5f612eca601283611d61565b9150612ed582612e96565b602082019050919050565b5f6020820190508181035f830152612ef781612ebe565b9050919050565b7f496e76616c6964206475726174696f6e000000000000000000000000000000005f82015250565b5f612f32601083611d61565b9150612f3d82612efe565b602082019050919050565b5f6020820190508181035f830152612f5f81612f26565b9050919050565b7f496e76616c696420707572706f736500000000000000000000000000000000005f82015250565b5f612f9a600f83611d61565b9150612fa582612f66565b602082019050919050565b5f6020820190508181035f830152612fc781612f8e565b9050919050565b7f4e487b71000000000000000000000000000000000000000000000000000000005f52604160045260245ffd5b5f819050815f5260205f209050919050565b5f6020601f8301049050919050565b5f82821b905092915050565b5f600883026130577fffffffffffffffffffffffffffffffffffffffffffffffffffffffffffffffff8261301c565b613061868361301c565b95508019841693508086168417925050509392505050565b5f819050919050565b5f61309c61309761309284611e8d565b613079565b611e8d565b9050919050565b5f819050919050565b6130b583613082565b6130c96130c1826130a3565b848454613028565b825550505050565b5f5f905090565b6130e06130d1565b6130eb8184846130ac565b505050565b5b8181101561310e576131035f826130d8565b6001810190506130f1565b5050565b601f8211156131535761312481612ffb565b61312d8461300d565b8101602085101561313c578190505b6131506131488561300d565b8301826130f0565b50505b505050565b5f82821c905092915050565b5f6131735f1984600802613158565b1980831691505092915050565b5f61318b8383613164565b9150826002028217905092915050565b6131a482611ea5565b67ffffffffffffffff8111156131bd576131bc612fce565b5b6131c78254612447565b6131d2828285613112565b5f60209050601f831160018114613203575f84156131f1578287015190505b6131fb8582613180565b865550613262565b601f19841661321186612ffb565b5f5b8281101561323857848901518255600182019150602085019450602081019050613213565b868310156132555784890151613251601f891682613164565b8355505b6001600288020188555050505b505050505050565b7f456d657267656e6379207769746864726177206661696c6564000000000000005f82015250565b5f61329e601983611d61565b91506132a98261326a565b602082019050919050565b5f6020820190508181035f8301526132cb81613292565b905091905056fea26469706673582212205b0bbfd04e082060c2ada65536ba9ded1d52dde6c29fc68bbd88d1f32a0303de64736f6c634300081c0033",
  "linkReferences": {},
  "deployedLinkReferences": {},
  "immutableReferences": {},
  "inputSourceName": "project/contracts/SimpleEscrow.sol",
  "buildInfoId": "solc-0_8_28-0f75e3c40d9a5de3d3e500619b661f9e592ac8a7"
}